{
  "contractName": "Election",
  "abi": [
    {
      "inputs": [],
      "stateMutability": "nonpayable",
      "type": "constructor"
    },
    {
      "anonymous": false,
      "inputs": [
        {
          "indexed": false,
          "internalType": "uint256",
          "name": "id",
          "type": "uint256"
        },
        {
          "indexed": false,
          "internalType": "string",
          "name": "name",
          "type": "string"
        },
        {
          "indexed": false,
          "internalType": "uint256",
          "name": "votecount",
          "type": "uint256"
        }
      ],
      "name": "electionUpdate",
      "type": "event"
    },
    {
      "inputs": [
        {
          "internalType": "uint256",
          "name": "",
          "type": "uint256"
        }
      ],
      "name": "candidates",
      "outputs": [
        {
          "internalType": "uint256",
          "name": "id",
          "type": "uint256"
        },
        {
          "internalType": "string",
          "name": "name",
          "type": "string"
        },
        {
          "internalType": "uint256",
          "name": "votecount",
          "type": "uint256"
        }
      ],
      "stateMutability": "view",
      "type": "function",
      "constant": true
    },
    {
      "inputs": [],
      "name": "candidatesCount",
      "outputs": [
        {
          "internalType": "uint256",
          "name": "",
          "type": "uint256"
        }
      ],
      "stateMutability": "view",
      "type": "function",
      "constant": true
    },
    {
      "inputs": [
        {
          "internalType": "address",
          "name": "",
          "type": "address"
        }
      ],
      "name": "voteornot",
      "outputs": [
        {
          "internalType": "bool",
          "name": "",
          "type": "bool"
        }
      ],
      "stateMutability": "view",
      "type": "function",
      "constant": true
    },
    {
      "inputs": [
        {
          "internalType": "uint256",
          "name": "_id",
          "type": "uint256"
        }
      ],
      "name": "vote",
      "outputs": [],
      "stateMutability": "nonpayable",
      "type": "function"
    }
  ],
  "bytecode": "0x60806040523480156200001157600080fd5b50620000586040518060400160405280601781526020017f4544415050414449204b2e2050414c414e495357414d49000000000000000000815250620001bc60201b60201c565b6200009e6040518060400160405280600681526020017f5354414c494e0000000000000000000000000000000000000000000000000000815250620001bc60201b60201c565b620000e46040518060400160405280600681526020017f5345454d414e0000000000000000000000000000000000000000000000000000815250620001bc60201b60201c565b6200012a6040518060400160405280600b81526020017f56414c4c41204455524149000000000000000000000000000000000000000000815250620001bc60201b60201c565b620001706040518060400160405280601081526020017f56494d414c205341492050524153414400000000000000000000000000000000815250620001bc60201b60201c565b620001b66040518060400160405280600881526020017f4750204d55544855000000000000000000000000000000000000000000000000815250620001bc60201b60201c565b620003dc565b600080815480929190620001d09062000330565b919050555060405180606001604052806000548152602001828152602001600081525060016000805481526020019081526020016000206000820151816000015560208201518160010190805190602001906200022f92919062000240565b506040820151816002015590505050565b8280546200024e90620002fa565b90600052602060002090601f016020900481019282620002725760008555620002be565b82601f106200028d57805160ff1916838001178555620002be565b82800160010185558215620002be579182015b82811115620002bd578251825591602001919060010190620002a0565b5b509050620002cd9190620002d1565b5090565b5b80821115620002ec576000816000905550600101620002d2565b5090565b6000819050919050565b600060028204905060018216806200031357607f821691505b602082108114156200032a5762000329620003ad565b5b50919050565b60006200033d82620002f0565b91507fffffffffffffffffffffffffffffffffffffffffffffffffffffffffffffffff8214156200037357620003726200037e565b5b600182019050919050565b7f4e487b7100000000000000000000000000000000000000000000000000000000600052601160045260246000fd5b7f4e487b7100000000000000000000000000000000000000000000000000000000600052602260045260246000fd5b6108c480620003ec6000396000f3fe608060405234801561001057600080fd5b506004361061004c5760003560e01c80630121b93f146100515780632d35a8a21461006d5780633477ee2e1461008b578063de40fdd3146100bd575b600080fd5b61006b6004803603810190610066919061041a565b6100ed565b005b6100756102ef565b60405161008291906105bb565b60405180910390f35b6100a560048036038101906100a0919061041a565b6102f5565b6040516100b4939291906105d6565b60405180910390f35b6100d760048036038101906100d291906103f1565b6103a7565b6040516100e49190610560565b60405180910390f35b600260003373ffffffffffffffffffffffffffffffffffffffff1673ffffffffffffffffffffffffffffffffffffffff16815260200190815260200160002060009054906101000a900460ff161561017a576040517f08c379a00000000000000000000000000000000000000000000000000000000081526004016101719061057b565b60405180910390fd5b6000600160008381526020019081526020016000206000015414156101d4576040517f08c379a00000000000000000000000000000000000000000000000000000000081526004016101cb9061059b565b60405180910390fd5b6000811180156101f957506000808154809291906101f190610730565b919050558111155b61020257600080fd5b60016000828152602001908152602001600020600201600081548092919061022990610730565b91905055506001600260003373ffffffffffffffffffffffffffffffffffffffff1673ffffffffffffffffffffffffffffffffffffffff16815260200190815260200160002060006101000a81548160ff0219169083151502179055507f523108b00f11d4cb164fec20a7d91695c7c58e86ff5bf8afe194d97650811b10816001600084815260200190815260200160002060010160016000858152602001908152602001600020600201546040516102e493929190610614565b60405180910390a150565b60005481565b600160205280600052604060002060009150905080600001549080600101805461031e906106fe565b80601f016020809104026020016040519081016040528092919081815260200182805461034a906106fe565b80156103975780601f1061036c57610100808354040283529160200191610397565b820191906000526020600020905b81548152906001019060200180831161037a57829003601f168201915b5050505050908060020154905083565b60026020528060005260406000206000915054906101000a900460ff1681565b6000813590506103d681610860565b92915050565b6000813590506103eb81610877565b92915050565b60006020828403121561040357600080fd5b6000610411848285016103c7565b91505092915050565b60006020828403121561042c57600080fd5b600061043a848285016103dc565b91505092915050565b61044c81610695565b82525050565b600061045d82610667565b6104678185610672565b93506104778185602086016106cb565b610480816107d7565b840191505092915050565b60008154610498816106fe565b6104a28186610672565b945060018216600081146104bd57600181146104cf57610502565b60ff1983168652602086019350610502565b6104d885610652565b60005b838110156104fa578154818901526001820191506020810190506104db565b808801955050505b50505092915050565b6000610518602283610672565b9150610523826107e8565b604082019050919050565b600061053b601383610672565b915061054682610837565b602082019050919050565b61055a816106c1565b82525050565b60006020820190506105756000830184610443565b92915050565b600060208201905081810360008301526105948161050b565b9050919050565b600060208201905081810360008301526105b48161052e565b9050919050565b60006020820190506105d06000830184610551565b92915050565b60006060820190506105eb6000830186610551565b81810360208301526105fd8185610452565b905061060c6040830184610551565b949350505050565b60006060820190506106296000830186610551565b818103602083015261063b818561048b565b905061064a6040830184610551565b949350505050565b60008190508160005260206000209050919050565b600081519050919050565b600082825260208201905092915050565b600061068e826106a1565b9050919050565b60008115159050919050565b600073ffffffffffffffffffffffffffffffffffffffff82169050919050565b6000819050919050565b60005b838110156106e95780820151818401526020810190506106ce565b838111156106f8576000848401525b50505050565b6000600282049050600182168061071657607f821691505b6020821081141561072a576107296107a8565b5b50919050565b600061073b826106c1565b91507fffffffffffffffffffffffffffffffffffffffffffffffffffffffffffffffff82141561076e5761076d610779565b5b600182019050919050565b7f4e487b7100000000000000000000000000000000000000000000000000000000600052601160045260246000fd5b7f4e487b7100000000000000000000000000000000000000000000000000000000600052602260045260246000fd5b6000601f19601f8301169050919050565b7f596f75206861766520766f74656420666f74207468652070617274696369706160008201527f6e74000000000000000000000000000000000000000000000000000000000000602082015250565b7f54686520494420446f65736e7420457869737400000000000000000000000000600082015250565b61086981610683565b811461087457600080fd5b50565b610880816106c1565b811461088b57600080fd5b5056fea2646970667358221220bbd5909c891a0bc96dcf83cd2349c00508e2cece66a529f7cc3e3046b0e7c26964736f6c63430008040033",
  "immutableReferences": {},
  "source": "// SPDX-License-Identifier: MIT\r\npragma solidity ^0.8.4;\r\n\r\ncontract Election{\r\n    // sturct candidate\r\n    // candidate count\r\n    // mapping candidate\r\n    struct Candidate{\r\n        uint id;\r\n        string name;\r\n        uint votecount;\r\n    }\r\n\r\n    uint public candidatesCount;\r\n\r\n    mapping(uint=>Candidate) public candidates;\r\n    mapping(address=>bool) public voteornot;\r\n\r\n    event electionUpdate(uint id,string name,uint votecount);\r\n\r\n    constructor(){\r\n        // the code that we want to initate\r\n        addCandidate(\"EDAPPADI K. PALANISWAMI\");\r\n        addCandidate(\"STALIN\");\r\n        addCandidate(\"SEEMAN\");\r\n        addCandidate(\"VALLA DURAI\");\r\n        addCandidate(\"VIMAL SAI PRASAD\");\r\n        addCandidate(\"GP MUTHU\");\r\n    }\r\n    // add Candidates\r\n    function addCandidate (string memory name) private{\r\n        candidatesCount++;\r\n        candidates[candidatesCount]=Candidate(candidatesCount,name,0);\r\n    }\r\n\r\n    // Vote Function\r\n\r\n    function vote(uint _id) public{\r\n        // the person has vote again \r\n        require(!voteornot[msg.sender],'You have voted fot the participant');\r\n        require(candidates[_id].id!=0,'The ID Doesnt Exist');\r\n        require(_id>0 && _id<= candidatesCount++);\r\n\r\n        candidates[_id].votecount++;\r\n        // the id that the person has input is available\r\n        voteornot[msg.sender]=true;\r\n        emit electionUpdate(_id,candidates[_id].name,candidates[_id].votecount);\r\n    }\r\n}",
  "sourcePath": "F:/Learning/Blockchain/Voting/contracts/Election.sol",
  "compiler": {
    "name": "solc",
    "version": "0.8.4+commit.c7e474f2.Emscripten.clang"
  },
  "schemaVersion": "3.4.1",
  "updatedAt": "2021-05-20T11:50:47.763Z",
  "networkType": "ethereum",
  "devdoc": {
    "kind": "dev",
    "methods": {},
    "version": 1
  },
  "userdoc": {
    "kind": "user",
    "methods": {},
    "version": 1
  }
}